:020000040800F2
:100000000004002009020008D7010008D9010008F7
:10001000DB010008DD010008DF010008000000002E
:10002000000000000000000000000000E1010008E6
:10003000E301000800000000E5010008E7010008F6
:10004000F0B4002200220022002200220022CB78FD
:1000500013F00F03CA78D20601D58A7813430A78C1
:10006000120620D0066800241AE0CA78482A16D161
:10007000A740076113E0012717FA04F50A882A4010
:10008000AA420CD1A2000F259540AE4313FA02F20A
:1000900032431600CA78282AE7D1A7404761641C7A
:1000A000082CE8D306600A88B2F5807F26DB466814
:1000B000002420E0012714F1080517FA05F50A8845
:1000C0002A40AA4216D1A2000F259540AE4313FA4A
:1000D00002F232431600CA78282A04D114F1080229
:1000E00017FA02F24261CA78482A03D114F10802D1
:1000F00097400761641C082CDCD34660F0BC704755
:1001000089B20161704789B24161704701B402E070
:100110000098401E009000980028F9D101B0704767
:1001200038B500F019F801240A4D4FF6FF71280088
:10013000FFF7E6FF210089B22800FFF7E4FF640023
:100140003220FFF7E3FF200080B20028ECD1012429
:10015000EAE70000000C014038B50121082000F05A
:1001600017F84FF6FF74ADF8004010208DF803002B
:1001700003208DF80200054D69462800FFF760FF57
:1001800021002800FFF7BCFF31BD00BF000C01407B
:10019000C9B2002904D005490A681043086004E088
:1001A00002490A6832EA00000860704718100240ED
:1001B00000F00DF8002801D0AFF30080AFF300800D
:1001C0000020AFF30080FFF7ABFF00F002F8012042
:1001D000704700F009B87047FEE7FEE7FEE7FEE76C
:1001E00070477047704770470746384600F002F87E
:1001F000FBE7000080B5AFF30080024A1100182031
:10020000ABBEFBE726000200AFF30080AFF3008037
:04021000FFF7CEFF27
:0400000508000209E4
:00000001FF
