:020000040800F2
:10000000000800209900000873000008750000082F
:1000100077000008790000087B000008000000005D
:100020000000000000000000000000007D0000084B
:100030007F00000800000000810000088300000825
:1000400000F00DF8002801D0AFF30080AFF300807E
:100050000020AFF3008000F004F800F003F8012066
:100060007047704700F000B80746384600F00AF8BD
:10007000FBE77047FEE7FEE7FEE7FEE770477047E5
:100080007047704780B5AFF30080024A1100182016
:10009000ABBEFBE726000200AFF30080AFF30080A9
:0400A000FFF7CEFF99
:040000050800009956
:00000001FF
